:020000040000FA
:1000000002258D7521017522057523DDE4FFFEAB08
:1000100021AA22A9238F828E831204ADFD74DD2FC5
:10002000F58274013EF583EDF00FBF00010EBE01B5
:10003000DEBFE6DB9001DB7401F0A374E6F07F0025
:100040002280FE021B2F0203D0E86480F8E933E827
:100050003360110460F0ED33EC337009E8FCE9FD26
:10006000EAFEEBFF220460DED3EB9FEA9EE99DE807
:10007000C2E78CF0C2F795F0400CE8CCF8E9CDF976
:10008000EACEFAEBCFFB12039B85D0F05804700345
:1000900020D5B3E80470075002B2D50203DA92D536
:1000A000EC0460F7E4CCC0E0C398F8603B941860BF
:1000B00008400DD0E0FB0203B2E4FBFAC9FC802843
:1000C000E830E406E4C9FBE4CAFCE830E305E4C92F
:1000D000CACBFCE854076010F8C3E913F9EA13FA35
:1000E000EB13FBEC13FCD8F130F52FC3E49CFCEFD1
:1000F0009BFFEE9AFEED99FDD0E0FBEF4E4D4C706C
:100100001222DB030203D7EC2CFCEF33FFEE33FEAD
:10011000ED33FDED30E7EB0203B2EF2BFFEE3AFEDD
:10012000ED39FDD0E0FB50130BBB00030203DAED09
:1001300013FDEE13FEEF13FFEC13FC0203B2EC4DC4
:100140006011E8497017ED33EC3304600DE4FCFFF7
:10015000FEFD22E933E8330470F80203D012039B5A
:1001600058046009E4CC248150062850090203DABF
:100170002840030203D7C0E0EB4A7044B98006D0A0
:10018000E0FB0203C6EF4E701CBD8008EBFFEAFEE9
:10019000E9FD80EBE98DF0A4FEE5F0020227E9CD50
:1001A000F9EAFEEBFFEF89F0A4FCE5F0CE89F0A4BC
:1001B0002EFFE435F0CD89F0A42DFEE435F0806704
:1001C000EF4E7005BD80D780C3EF8BF0A4ACF0EE8E
:1001D0008BF0A42CFCE435F0F8EF8AF0A42CE5F0C9
:1001E00038FCE433CB8DF0A42CFCE5F03BF8EE8A30
:1001F000F0A42CFCE5F038F8E433CF89F0A42CFC13
:10020000E5F038CF3400CE89F0A42FFFE5F03EFEB4
:10021000E433C98DF0A42EFEE5F039CD8AF0A42F89
:10022000FFE5F03EFEE43DFD33D0E0FB50070BBBA5
:10023000000F0203DAEC2CFCEF33FFEE33FEED335C
:10024000FD0203B20203DAEC5D046005E8590470B4
:10025000030203D012039B580460F6EC4860F2ECF2
:100260007004FDFEFF22C860DB2481C85009C398DA
:10027000600250060203D79850CAF582E9294B4A1A
:100280007005AB820203C675F0007C1A7880C3EF5C
:100290009BEE9AED99400DC3EF9BFFEE9AFEED9910
:1002A000FDE842F0DC23ACF0D0E0FFD0E0FED0E08F
:1002B000FDAB8220E7101BEB60BAEC2CFCEF33FFA8
:1002C000EE33FEED33FD0203B2E803F830E705C07C
:1002D000F075F000EF2FFFEE33FEED33FD40B83048
:1002E000E7C280AA74F8CC6480CCC86480C8F58268
:1002F00004604FC3EB9FF5F0EA9E42F0E99D42F0A7
:10030000E89C45F0603C501DE5825FFFE582D31319
:10031000CB5BCBF42B5582FB50280ABA002409B9D9
:10032000002008801DE5825BFBE582D313CF5FCF01
:10033000F4C3132F5582FF50090EBE00050DBD00FA
:10034000010CC3EB9FF5F0EA9E42F0E99D42F0E814
:100350009C45F06007CC4820E701B3EC2275F02003
:10036000800E75F010800575F0087D007E007F001E
:100370003392D530D5031206D5EC334010EF33FF5E
:10038000EE33FEED33FDEC33FCD5F0ED22E5F02449
:100390007EA2D513CC92E7CDCEFF22E9D2E7C933B6
:1003A000E833F892D5EDD2E7CD33EC33FC5002B20E
:1003B000D522EC30E7100FBF000C0EBE00080DBDBB
:1003C00000040BEB6014A2D5EB13FCED92E7FD22C9
:1003D00074FFFCFDFEFF22E480F8A2D574FF13FC3D
:1003E0007D80E480EFED33EC33601004700FED544A
:1003F0007F7005740292E0227404220422E422ED4C
:1004000033EC33600A047003BD8004ECB2E7FC22D5
:10041000EDD2E7CD33EC3392D524814006E4FFFEE4
:10042000FDFC22FCE4CFCECDCC24E0501174FF8043
:10043000EDC3CC13CCCD13CDCE13CECF13CF0470E0
:10044000F030D5DE0206D5C0E0EFFBEEFAEDF9ECB8
:10045000F812013ED0E0F5F0EFFBEEFAEDF9ECF822
:10046000120700A3A3A3A3E8C0E0E9C0E0EAC0E04C
:10047000EBC0E0C0F012013E120710A3A3A3A31229
:10048000004DD0F0D0E0FBD0E0FAD0E0F9D0E0F8B9
:10049000D5F0D422BB010689828A83E0225002E78C
:1004A00022BBFE02E32289828A83E49322BB010CF1
:1004B000E58229F582E5833AF583E0225006E925B5
:1004C00082F8E622BBFE06E92582F8E222E58229CF
:1004D000F582E5833AF583E49322BB010689828A9B
:1004E00083F0225002F722BBFE01F322F8BB010D7C
:1004F000E58229F582E5833AF583E8F0225006E9A2
:100500002582C8F622BBFE05E92582C8F222EF8DBE
:10051000F0A4A8F0CF8CF0A428CE8DF0A42EFE225B
:10052000BB010A89828A83E0F5F0A3E022500687A6
:10053000F009E71922BBFE07E3F5F009E319228968
:10054000828A83E493F5F074019322BB0110E58263
:1005500029F582E5833AF583E0F5F0A3E02250091E
:10056000E92582F886F008E622BBFE0AE92582F832
:10057000E2F5F008E222E5832AF583E993F5F0A39A
:10058000E99322BB010789828A83020809500B097B
:10059000C5F027F7C5F01937F722BBFE0D09F8E3C0
:1005A00025F0F3C5F019E338F322F889828A8374C1
:1005B000019325F0C5F0F8E4933822BB010A898243
:1005C0008A83F0E5F0A3F0225006F709A7F019227C
:1005D000BBFE06F3E5F009F31922F8BB0111E58231
:1005E00029F582E5833AF583E8F0E5F0A3F022509F
:1005F00009E92582C8F608A6F022BBFE09E9258292
:10060000C8F2E5F008F22275F008758200EF2FFFBE
:10061000EE33FECD33CDCC33CCC58233C5829BEDDA
:100620009AEC99E58298400CF582EE9BFEED9AFDDE
:10063000EC99FC0FD5F0D6E4CEFBE4CDFAE4CCF98E
:10064000A88222B800C1B90059BA002DEC8BF08401
:10065000CFCECDFCE5F0CBF97818EF2FFFEE33FECF
:10066000ED33FDEC33FCEB33FB10D703994004EB87
:1006700099FB0FD8E5E4F9FA227818EF2FFFEE3353
:10068000FEED33FDEC33FCC933C910D7059BE99A65
:100690004007EC9BFCE99AF90FD8E0E4C9FAE4CCF6
:1006A000FB2275F010EF2FFFEE33FEED33FDCC3360
:1006B000CCC833C810D7079BEC9AE899400AED9B49
:1006C000FDEC9AFCE899F80FD5F0DAE4CDFBE4CC28
:1006D000FAE4C8F922C3E49FFFE49EFEE49DFDE432
:1006E0009CFC22EB9FF5F0EA9E42F0E99D42F0E887
:1006F0009C45F022E0FCA3E0FDA3E0FEA3E0FF2286
:10070000E493FC740193FD740293FE740393FF223F
:10071000E493F8740193F9740293FA740393FB223F
:10072000ECF0A3EDF0A3EEF0A3EFF022A882858316
:10073000F0D083D0821207431207431207431207F7
:1007400043E473E493A3C583C5F0C583C8C582C8D9
:10075000F0A3C583C5F0C583C8C582C822A425827D
:10076000F582E5F03583F58322E6FB08E6FA08E634
:10077000F922EBF608EAF608E9F622E0FBA3E0FA34
:10078000A3E0F922EBF0A3EAF0A3E9F022BB010712
:1007900089828A8302077B5005E9F8020769BBFE5C
:1007A00005E9F802081F89828A83020828BB010D27
:1007B000E58229F582E5833AF58302077B5007E954
:1007C0002582F8020769BBFE07E92582F802081FA7
:1007D000E58229F582E5833AF583020828D083D0A3
:1007E00082F8E4937012740193700DA3A393F874CC
:1007F0000193F5828883E4737402936860EFA3A386
:10080000A380DF8A838982E473C5F0F8A3E028F02F
:10081000C5F0F8E582158270021583E038F022E217
:10082000FB08E2FA08E2F922E493FB740193FA74FC
:100830000293F9228F527553FD786AE6FFC4135470
:10084000036402600302090708E60470030208E873
:1008500024FD6003020907786CE6FE08E6FFEE60FF
:1008600003020907EF24FE604424FE605324FC6069
:100870006224076003020907900042E030E0085458
:10088000FEF04402F08007900042E054FDF07F014A
:10089000122E02123AF090003E12072C00000008BF
:1008A000900042E0FF30E15C4401F0805790003E50
:1008B0001206F4EF4410FFEC90003E120720804433
:1008C00090003E1206F4EF4420FFEC90003E120729
:1008D0002080317BFF7A3C79BD755F00756002C274
:1008E00004E4FF121EB0801C786CB6371A08B60BF1
:1008F000167BFF7A3C79BC755F00756001C204E429
:10090000FF121EB0E4F553E5537019900042E03039
:10091000E00F90003E1206F4EC4D4E4F6003123A89
:1009200000AF5322786AE66480703308E66406609C
:10093000030209E808E6FC08E6FDEC640360030234
:1009400009E8AF05EF64EE60030209E87BFF7A3B3C
:1009500079C3903BC393755F00F5600209DE786A46
:10096000E664C0703608E664017030786FE66404AF
:1009700018467027F5547555287870E6FE08E6FF8E
:10098000D3E5559FE5549E40048E548F557BFF7AE6
:100990003B79D585545F8555608043786AE664C1AC
:1009A000704608E664017040786EE6FE08E6FF6473
:1009B000054E6004EF4E7030755400755592787096
:1009C000E6FE08E6FFD3E5559FE5549E40048E54AD
:1009D0008F557BFF7A3B79FD85545F855560C20456
:1009E000E4FF121EB0E4F553AF53229001DDE0F5B1
:1009F000827583007C007D30FF7E0012050E7443FB
:100A00002FF974063E752301F524892574032FF907
:100A100074073E752601F5278928E4F521F522AEF5
:100A200021E5227802C333CE33CED8F9F5828E8306
:100A3000A3A3A3AB23AA24A9251204ADFDAE21E5EF
:100A4000227802C333CE33CED8F9FF24DDF5827489
:100A5000013EF583EDF08F828E83A3A31204ADFDDA
:100A6000AE21E5227802C333CE33CED8F9FF24DE9F
:100A7000F58274013EF583EDF08F828E83A312041C
:100A8000ADFDAE21E5227802C333CE33CED8F9FFD7
:100A900024DFF58274013EF583EDF08F828E8312A0
:100AA00004ADFD74E02FF58274013EF583EDF08F07
:100AB000828E83A3A3A3AB26AA27A9281204ADFD87
:100AC000AE21E5227802C333CE33CED8F9FF240D10
:100AD000F58274023EF583EDF08F828E83A3A3121C
:100AE00004ADFDAE21E5227802C333CE33CED8F972
:100AF000FF240EF58274023EF583EDF08F828E8323
:100B0000A31204ADFDAE21E5227802C333CE33CE6D
:100B1000D8F9FF240FF58274023EF583EDF08F8241
:100B20008E831204ADFD74102FF58274023EF5839E
:100B3000EDF00522E52270020521640C45216003D9
:100B4000020A1F9001DBE4F0A37420F07F0022E48E
:100B5000F521F5227A0579DD7B017528017529E6F5
:100B6000FD7CF6123101E4FFFE7D807C3F9005E1C3
:100B7000E0F8A3E0F9A3E0FAA3E0FB1202E44028C6
:100B8000E4FFFE7D807C409005E1E0F8A3E0F9A35E
:100B9000E0FAA3E0FB1202E46002500C90063DE094
:100BA000D394105003020C809005DD12072C4053A3
:100BB00033339005E112072C40533333E4F521F52C
:100BC00022E522AE217802C333CE33CED8F9FBAA78
:100BD0000624E5F58274053AF58312072C3F800060
:100BE0000074F52BF58274053AF58312072C00008A
:100BF0000000E522AE217802C333CE33CED8F9FB14
:100C0000AA062405F58274063AF58312072C4316CA
:100C1000000074152BF58274063AF58312072C41F7
:100C2000200000E522AE217802C333CE33CED8F9BE
:100C30002425F58274063EF58312072C000000007F
:100C40000522E52270020521640445216003020BA0
:100C5000C190063512072C3F9333339006391207A3
:100C60002C3F93333390063D740AF0A37401F07A5D
:100C70000579DDFBF5287529E67F007EF61237F051
:100C800090063DE0FCE41203678F2A8E298D288CA4
:100C9000277F007E007D007C40121305E4FBFA797B
:100CA0008078BF12004D9007C3120720E49007C957
:100CB000F0229007F31207849000111204AD900007
:100CC00043F0E4900800F0900800E0FF7C007BFF18
:100CD000248DF9EC343BFA120494FEEF7B012400DE
:100CE000F9EC3400FAEE1204DA900800E004F0E0C7
:100CF000B412D4E4900800F0900800E0FF903B9F0D
:100D000093FE74122FF582E43400F583EEF0900820
:100D100000E004F0E0B420E09007F312077B120536
:100D200020FAE5F0FFEAFE900008EEF0A3EFF09065
:100D300007F312077B90000212054BFAE5F0FFEA79
:100D4000FE90000AEEF0A3EFF07BFF7A3B79BF90B4
:100D500000321207849007F312077B9000041207F9
:100D6000AD9000351207849007F312077B900007BF
:100D70001207AD9000381207849007F312077B909A
:100D8000000A1207AD90003B1207849007F3120788
:100D90007B90000D1204ADFFC394FA500590001A29
:100DA000EFF09007F312077B90000F12054BFAE566
:100DB000F0FFEAFE90000CEEF0A3EFF09007F312C4
:100DC000077B90000E1204AD900019F07B017A00B1
:100DD00079009007F61207847A0079129007F912C9
:100DE00007847A0079329007FC1207849007FF7419
:100DF00004F0E4900057F090003E12072C00000031
:100E000000E4900042F07A0779F60223D68E2A8F0A
:100E10002B8C2C8D2D753402753500E53524FFFFA4
:100E2000E53434FFFEEFF4FFEEF4FE552AF52EE52F
:100E30002B5FF52F2535CDE52E3534CD24FFF5314B
:100E4000ED34FFF530E52B252DCDE52A352CCD24CD
:100E5000FFCD34FF5EF532ED5FF5332535CFE5325A
:100E60003534CF24FFCF34FFFEE5316F7003E5301A
:100E70006E705DFF7EF812372C122BA9E4252BFF34
:100E8000E52A34F8FEC3EF952FFFEE952EFEE52DF3
:100E90002FF537E52C3EF536E52B252DF539E52ADE
:100EA000352CF538C3E531952BFFE530952AFEC387
:100EB000EF952DFFEE952CCF2401F53BE43F122B4F
:100EC000C0AF2FAE2E12372C852E36852F3780756A
:100ED0007F007EF812372C122BA9AF2FAE2E1237BF
:100EE0002C852E36852F377538F875390085343ABC
:100EF00085353BAA3A122BC37F007EF812372CC3EC
:100F0000E531952BCFE530952ACF2401CF3400FE73
:100F1000C3E52D9FFFE52C9EFEE42FF537EE34F858
:100F2000F536E5332FF539E5323EF538C3E5359F23
:100F3000F53BE5349E122BC0AF33AE3212372C8511
:100F400032368533377538F875390085343A85354A
:100F50003BAB3BAA3A122BC5229001DDE0F582752E
:100F600083007C007D30FF7E0012050E74432FF954
:100F700074063E752301F524892574032FF974073F
:100F80003E752601F5278928E4F521F522AE21E5F5
:100F9000227802C333CE33CED8F9FF24DEF5827433
:100FA000013EF583E0AB23AA24A9258F828E83120C
:100FB00004EC74DF2FF58274013EF583E08F828E9E
:100FC00083A31204ECAE21E5227802C333CE33CEE4
:100FD000D8F9FF24E0F58274013EF583E08F828E1C
:100FE00083A3A31204ECAE21E5227802C333CE33EF
:100FF000CED8F9FF24E1F58274013EF583E08F82BB
:101000008E83A3A3A31204ECAE21E5227802C3339E
:10101000CE33CED8F9FF240EF58274023EF583E07C
:10102000AB26AA27A9288F828E831204EC740F2F77
:10103000F58274023EF583E08F828E83A31204EC66
:10104000AE21E5227802C333CE33CED8F9FF241087
:10105000F58274023EF583E08F828E83A3A312048F
:10106000ECAE21E5227802C333CE33CED8F9FF248B
:1010700011F58274023EF583E08F828E83A3A3A3D1
:101080001204EC0522E52270020521640C45216062
:1010900003020F8D9007C97401F07F00223E924831
:1010A000DA3ECCCCCD3F2AAAAB400000003F800006
:1010B000003F9837F03FB504F33FD744FC3E317210
:1010C000173EB172173F0515913EDE5BD9D2008005
:1010D00002C200EDD2E7F8CD33EC3304700BBD80D3
:1010E0000592D50203DA0203D040FBD31460F2F577
:1010F000F07C3FEE7A00C39496C8948B40230AC8D4
:101100009469C8941A401A0AC89468C8941F401178
:101110000AC8945AC89425400805F07A00CDC2E761
:10112000CDC0F08C2D8D2E8E2F8F30EA2323C0E082
:1011300024ADF582E43410F58312071012004DEC53
:10114000C0E0EDC0E0EEC0E0EFC0E0120700A82D67
:10115000A92EAA2FAB30120049D0E0FBD0E0FAD084
:10116000E0F9D0E0B2E7F81202478C2D8D2E8E2FD9
:101170008F3090109D7403120447A82DA92EAA2F1A
:10118000AB3012013ED0E0600F24B9F582E4341098
:10119000F58312071012004D8C2D8D2E8E2F8F305F
:1011A000D0E0C3947FFDE49400FC1203627B187AC4
:1011B000727931783F12013EA82DA92EAA2FAB30AB
:1011C00012004D30000B7BD97A5B79DE783E12013C
:1011D0003E229000A17404F0A374FFF0A37438F0D1
:1011E000A374E3F0A374FFF0A37434F0A374F6F0D7
:1011F000A374FFF0A37436F0A3747DF0A374FFF022
:10120000A3743AF0A37452F09000C07404F0A37475
:10121000FFF0A37437F0A374A7F0A374FFF0A374D6
:1012200033F0A374ECF0A374FFF0A3742BF0A37459
:1012300042F0A374FFF0A37427F0A374AAF0900007
:10124000DF7402F0A374FFF0A37428F0A374A6F077
:10125000A374FFF0A3742AF0A3746EF09000FE74E0
:1012600002F0A374FFF0A37400F0A37403F0A3745E
:10127000FFF0A37433F0A37435F090011D7401F0F6
:10128000A374FFF0A3741DF0A37450F090015B747D
:1012900002F0A374FFF0A37439F0A374C1F0A37437
:1012A000FFF0A37439F0A374D6F090017A7402F0C1
:1012B000A374FFF0A37421F0A374FAF0A374FFF0F9
:1012C000A37428F0A3742BF09001997402F0A37416
:1012D000FFF0A37409F0A374EBF0A374FFF0A37400
:1012E0000FF0A37459F09001B87402F0A374FFF0EA
:1012F000A37430F0A3741BF0A374FFF0A37430F058
:10130000A3746BF0228F268E258D248C23E4FFFEA0
:101310007D807C3FAB26AA25A924A8231202E47075
:1013200009AF26AE25AD24AC2322AF26AE25AD24D1
:10133000AC231203E5FBAF2AAE29AD28AC2712037C
:10134000E5FFBF0108E4FFFE7D807C3F22EF6404DF
:101350006022EB6404601DBB0127E4FFFEFDFCABD3
:101360002AAA29A928A8271202E460084006E4FF57
:10137000FEFDFC2274FFF52AF529F528F527021455
:1013800013E4F52BF52CFFFEFDFCAB26AA25A924C2
:10139000A8231202E4504BAF2AAE29AD28AC271285
:1013A00004108E2B8F2CAC2BAD2CEC120362C8ECEE
:1013B000C8C9EDC9CAEECACBEFCBAF2AAE29AD285A
:1013C000AC27120049E4FBFAF9F81202E470A5AF69
:1013D00026AE25AD24AC231203FF8F268E258D2447
:1013E0008C23AF26AE25AD24AC231210D1AB2AAA94
:1013F00029A928A82712013E1223748F2A8E298D2D
:10140000288C27E52C30E00B1203FF8F2A8E298DC4
:10141000288C27AF2AAE29AD28AC27227879E6138D
:1014200092037876E6FE08E6FFC39440EE9400400F
:10143000047F4080008F528552537872E6FF547FBC
:101440006401705EEF30E72108120769C2067D0271
:10145000E4FF122AD87875740226F618E436F615D9
:101460005215527872E6547FF6E4F554E552C313F0
:10147000FFE554C39F50437873120769C2067D018C
:10148000E4FF122AD87875740126F618E436F67B44
:10149000FF7A3C79BFC2067D01E4FF122AD80554C9
:1014A00080CA7873120769C206AD52E4FF122AD8C7
:1014B0007875E55226F618E436F67879E654FBF6A8
:1014C000C37877E69553FF18E69400FEF608EFF62A
:1014D0004E701E7879E620E41875961175970AE526
:1014E0009620E7FB78787601E47872F67879F680D2
:1014F00018759611759702E59620E7FB7877E61840
:101500004670067879E654EFF6300314E553FB7A1B
:10151000007876E6F55908E6F55AE4FDFF12152144
:10152000228F558D568A578B58E55564017054E5C6
:1015300056705090005B12077BE5578558F01205F6
:1015400083C3900064E09558FF900063E09557FED8
:10155000F0A3EFF04E600302160AE55845576017F6
:10156000E558543F7011FBFAF9F55FF560D2047F3E
:1015700001121EB002160A90003E1206F4EF440259
:10158000021602E5556402600302160AE55670531E
:1015900090005E12077BE5578558F0120583C390D3
:1015A0000062E09558F0900061E09557F0C3E5586F
:1015B0009440E5579400500B90003E1206F4EF441F
:1015C00004803F900061E0FEA3E0FF4E703CEF54CA
:1015D0003F7037FBFAF9F55FF560D2047F021227FE
:1015E000278027E556B4F22290003E1206F4EE441E
:1015F00001FEEC90003E12072090003E1206F4EF30
:101600004404FFEC90003E120720900042E030E0DE
:101610000F90003E1206F4EC4D4E4F6003123A005C
:10162000E4FEFF22E4FDFC7556FF786AE664806004
:1016300003021722786CE6FE08E6F552EEFFE4603E
:1016400003021700EF24FE602514604424026003A7
:10165000021700E552600302170078881207698BB1
:10166000538A5489551204947C00FD021700E552F8
:101670006003021700788B1207698B538A548955CF
:1016800090000212054BFAE5F0FFEAFCEFFD8070D6
:10169000788E12076975F003E552A4F58285F08310
:1016A0001207AD8B538A548955E552700BFC7D04AB
:1016B0007872E65480F68048786EE6FE08E6FF4EC3
:1016C000600AEF64097003EE64047034E552C37875
:1016D0006796502CAB53AA54A9559000011204AD43
:1016E0007C00FD120494547FFF7872E654804FFF13
:1016F000F674012555F555E43554F554EF4480F65C
:10170000ED4C601E7870E6FE08E6FFD3ED9FEC9E80
:101710004004AC06AD07AB53AA54A95512364DE4AC
:10172000F556AF56228C288D29E4F52AF52BE529AC
:1017300024FFFFE52834FFFEC3E52B9FEE6480F80D
:10174000E52A648098400302180AE4F52CF52DE59B
:101750002924FFFFE52834FFFEC3EF952BFFEE950C
:101760002AFEC3E52D9FEE6480F8E52C6480984046
:10177000030217FCE52D2401FFE4352CFEEF25E0E4
:10178000FFEE338F82F58312054BFDACF0E52D257E
:10179000E0FFE52C338F82F58312054BFFAEF0C3DB
:1017A0009DEE9C50498E2E8F2FE52D2401FFE435B0
:1017B0002CFEEF25E0FFEE338F82F58312054BFD03
:1017C000E52D25E0FFE52C338F82F583E5F08DF0E4
:1017D0001205DAE52D2401FFE4352CFEEF25E0FFAC
:1017E000EE338F82F583E52E852FF01205DA052D75
:1017F000E52D600302174F052C02174F052BE52B33
:10180000600302172E052A02172E22EE600302182B
:10181000D7EF1207DD185280186E90188AA0186052
:10182000A4187CA51898A618B4A718D0AE18A6B00E
:1018300018C2C71867D41883D5189FD618BBDF18ED
:1018400059F11875F21891F318ADF418C9F50000A4
:1018500018D7AF058F807E0022AF058FF17E002262
:10186000AF058FA47E0022AF058FD47E0022AF0586
:101870008F907E0022AF058FF27E0022AF058FA5EC
:101880007E0022AF058FD57E0022AF058FA07E009F
:1018900022AF058FF37E0022AF058FA67E0022AF18
:1018A000058FD67E0022AF058FB07E0022AF058F58
:1018B000F47E0022AF058FA77E0022AF058FDF7E6A
:1018C0000022AF058FC77E0022AF058FF57E002274
:1018D000AF058FAE7E00227EFF7FFF22C2037F0115
:1018E000123B1F123AE35015759694E59620E7FBDC
:1018F0005397BFE59620E7030219A480F6123B0830
:1019000040030219A4123B7B8F517886E664036082
:101910000A08E64402F67552F98068C37885E695B0
:101920005118E69400500E7886760108E64402F6D7
:101930007552F2804E7881120769AD517F011231E4
:10194000DC7887E654FDF6AF517E00C37885E69FCC
:10195000F618E69EF618EF26F618EE36F67885E6C7
:1019600018466006E5516440600678867601D20329
:10197000E4F552759694E59620E7FB5397FEE596BD
:1019800020E7FB7887E630E01B30030354FEF6E5E2
:1019900051FB7A007884E6F55908E6F55AAD527F96
:1019A00002121521227551FDE4FF123B1F123ABCB1
:1019B0004005123AAF501D759611E4F597E5962053
:1019C000E7FB759611759780E59620E7FB787876AA
:1019D00001E408F6123AFC4003021A5F7879E6FF48
:1019E00030E30280777878E6640170627872F612EC
:1019F0002EC07F6A1208348F51E551B4FD0F786A0A
:101A0000E6FFC41354037005122F708F51E4FF12C8
:101A10003B1FE55170337871E61846700D759611CD
:101A2000759748E59630E73780F9759611759740B8
:101A3000E59620E7FB786AE620E7247878E66403F9
:101A4000601D08E64408F68016123A158011787871
:101A5000E6B4030512246B80067879E64402F67832
:101A600078E6B40208123AC9400312141C22530744
:101A7000077E00EE7053EFB40800504D901A83F8C3
:101A8000282873021A9B021AA1021AA7021AAD0291
:101A90001AB3021AB9021ABF021AC57E007F8080EB
:101AA000287E007F4080227E007F20801C7E007F79
:101AB0001080167E007F0880107E007F04800A7EE2
:101AC000007F0280047E007F01EF7806C333CE33AF
:101AD000CED8F9FFEE4480F528EF4418F529E4F557
:101AE0002AF52BF52CF52DF530C2A67F027E007D60
:101AF000007C00122F19E53025E02428F8E6FE08C6
:101B0000E6FF12298E8E2E8F2F7F027E007D007CB5
:101B100000122F19D2A67F027E007D007C00122FBA
:101B2000190530E530C3940340BFAE2EAF2F22C05D
:101B3000E0C0F0C083C082C0D075D000C000C0013A
:101B4000C002C003C004C005C006C007123B2A8FF4
:101B50004D123B358F4E123B408F4F123B4B8F50F7
:101B6000E54D30E3287879E6FF30E10618E66403B6
:101B7000600AEF30E2097878E6B40203434E017858
:101B800087E630E10818E6B40303434F02E54D3021
:101B9000E20C123459E5C9A2E64003434D01E54D7C
:101BA00030E103123B74E54D30E003123A94E54E08
:101BB00030E10312229CE54F30E1031218DCE54EC0
:101BC00030E0031219A5AF50123B1FD007D006D04A
:101BD00005D004D003D002D001D000D0D0D082D024
:101BE00083D0F0D0E0327552FF786CE6FC08E6FD59
:101BF000EC6003021C9A786AE6541F6003021C9A88
:101C00007871E618466003021C9A18E618466003CD
:101C1000021C9A7868E66404703EED4C6014788B80
:101C20001207699000051204AD786D66700218E61F
:101C30007068786DE67866F6788B12076990000513
:101C40001204AD786D66700218E6704BD20312373D
:101C50007E7F0612361D803F7868E66406703B780A
:101C60006CE6FE08E6FF4E6012788B120769900062
:101C7000051204ADB50723E4B5061F786DE6786656
:101C8000F6786DE61846700A7F0412361D1238A1E8
:101C90008005C20312377EE4F552AF52227552FF1F
:101CA0007871E6640218466003021D4D786DE618EF
:101CB000466003021D4D786AE6FF20E703021D4DD2
:101CC0007868E6C394045003021D4DE4F51DF51E2B
:101CD000EF541F14601814602324027061786FE6BB
:101CE0001846705A123B615052431D01804DC37813
:101CF0006FE6940118E694005044803F786EE6FE4B
:101D000008E6FFAC06547F4C70087868E6B404021D
:101D100080297868E6B40626EF247F60122480705C
:101D20001D7886E6B40606751D01751E00800C78C8
:101D30007FE6B40606751D01751E00E4F552E552F6
:101D4000700BFB7A00791D7D02FC12364DAF5222DA
:101D5000E4F527F526F525F5249001DEE0FD900158
:101D6000DDE0F521EDF522E4F523C3E523941E74AF
:101D7000809480501DAF22AE21121A6EE52325E01B
:101D80002465F582E43400F583EEF0A3EFF005233B
:101D900080D87B017A0079657D1E7C00121725E4CE
:101DA000F523C3E523940A74809480502DE5232500
:101DB000E02479F582E43400F583E0FEA3E0FFE45B
:101DC000FCFDE5272FF527E5263EF526ED3525F523
:101DD00025EC3524F524052380C8E47B0AFAF9F8BC
:101DE000AF27AE26AD25AC24120643AC069001DF2A
:101DF000ECF0A3EFF09001DBE4F0A37404F07F00BB
:101E0000229001D7E0C3940A74809480400A900124
:101E1000D9E4F0A374FFF0229001D7E075F01FA47D
:101E200024A1F582E5F03400F583E0FF9001D8E0CD
:101E3000C39F4008A3E4F0A374FEF0229001D7E012
:101E400075F01FA424A2F582E5F03400F583C08369
:101E5000C0829001D8E0D082D08375F00312075D74
:101E6000E0FBA3E0FAA3E04A4B603C9001D7E075A9
:101E7000F01FA424A2F582E5F03400F583C083C0EE
:101E8000829001D8E0D082D08375F00312075DA361
:101E9000E0FAA3E0F9120803EF648060119001D921
:101EA000E4F0A3EFF08007E49001D9F0A3F0D3228F
:101EB0008F5B8B5C8A5D895EE55B600B14600880DC
:101EC000001200417FFC22E55B600A7868E6640648
:101ED00060037FF722E55B75F007A42473F9AF0177
:101EE000EF2405F8E6FE64016009EE7FFEB405020A
:101EF0007FFB22E5E6A2E1920553E6FDAB5CAA5D1D
:101F0000A95EA807120772EF2403F8A65F08A6606F
:101F1000EF2405F87602A204E4335401FEEF240610
:101F2000F8E654FE4EF6E55B14600B0470277879F2
:101F3000E64404F6801FD3E5609440E55F940040DA
:101F4000047D408004AF60AD07787A120769D2063D
:101F50007F01122AD830050343E6027F0022EE609B
:101F600003022004EF1207DD1FA5801FB9901FCDCB
:101F7000A01FAFA41FC3A51FD7A61FEBA71FFFAEAF
:101F80001FE1B01FF5C71FB4D41FC8D51FDCD61F73
:101F9000F0DF1FAAF11FBEF21FD2F31FE6F41FFAF3
:101FA000F500002004AF807E0022AFF17E0022AF5A
:101FB000A47E0022AFD47E0022AF907E0022AFF23A
:101FC0007E0022AFA57E0022AFD57E0022AFA07E8C
:101FD0000022AFF37E0022AFA67E0022AFD67E00A5
:101FE00022AFB07E0022AFF47E0022AFA77E002297
:101FF000AFDF7E0022AFC77E0022AFF57E0022AFAA
:10200000AE7E00227EFF7FFF227552FF7871E618B8
:102010004660030220AE786AE6541F24FE60030285
:1020200020AE786DE6184660030220AE786EE6FEBC
:1020300008E6547FFF4E700D7868E6C394044005AF
:10204000E4F5528069C3EF9403EE94005060786821
:10205000E664067059F552786FE6547FFF123B1F15
:10206000786FE630E70B759611759740E59620E797
:10207000FB786FE620E718759694E59620E7FB530A
:1020800097DFE59620E7FB439780E59620E7FB780E
:102090006FE6247F600F248070147886E664036006
:1020A0000D76018009787FE6640260027601AF5206
:1020B000228F318D328A338B34122C10EF6006124E
:1020C0002DA17F0122E53154FEFF12326DEF600633
:1020D000122DA17F0222AF3212326DEF6006122D57
:1020E000A17F0322122C10EF6006122DA17F042283
:1020F000E5314401FF12326DEF6006122DA17F051C
:1021000022E4F538F539C3E5399534E5389533508F
:102110003AE53424FFFFE53334FFFEEFB53908EE2E
:10212000B538047F0180027F00AB35E5372539F9EA
:10213000E5363538FA1230B6EF6006122DA17F066B
:10214000220539E53970BF053880BB122DA1EF7F1C
:102150000060027F07221239408F248E238D228C4B
:1021600021E5245480FFE4FEFDFCEF6003123B896F
:10217000E5245410FFE4FEEF601A9007F8E4F0A3A2
:102180007400F0A37491F07B017A0179D77D067C0D
:1021900004123528E5245404FFE4FEEF603790076D
:1021A000F8E4F0A37400F0A37491F07B017A017954
:1021B000D77D067C04123528121E019007F8E4F042
:1021C000A37400F0A37493F07B017A0179D77D06A4
:1021D0007C0412355AE5245402FFE4FEEF601A90A5
:1021E00007F8E4F0A37400F0A37491F07B017A0186
:1021F00079D77D067C0412352822752900752A00BE
:10220000752B211235BDAD07AC06E41203628F2891
:102210008E278D268C25E4FBFA79C8784212013E80
:102220008F288E278D268C257B9A7A997999783EEE
:102230001202478F288E278D268C25E4FBFA7980A1
:1022400078471202478F288E278D268C257B8F7A20
:10225000C27975783F12013E8F288E278D268C25F6
:102260008F248E238D228C21E4FFFEAB29AA2AA97C
:102270002B8F828E831204ADFD74DD2FF5827401E5
:102280003EF583EDF00FBF00010EEF64044E70DBEE
:102290009001DBE4F0A37404F07F00227F01123B85
:1022A0001F123AD65010759611E4F597E59620E77F
:1022B0000302233B80F6787FE66402707E787DE639
:1022C000FE08E6FFD39440EE940040047F40800077
:1022D0008F517E00C3787EE69FF618E69EF618EFD3
:1022E00026F618EE36F67880E6139203787DE6FE41
:1022F00008E6FFD39400EE9400401FD3EF9440EE25
:10230000940040047D408004787EE6FD787A1207D0
:1023100069D2067F01122AD880097880E654FEF639
:10232000187601300315E551FB7A00787DE6F55902
:1023300008E6F55AE4FD7F011215212233DA929E58
:1023400035B16011377FE5FE392184893AAEC3FF8C
:102350003C1D955B3D6358473E75FDF03F3172185B
:102360003F800000C2D50203DA0203D0BD80FA50DC
:10237000F30203D7ED33EC330460F17B3B7AAA79A7
:10238000B8783F12013EED33EC3392D5247B5011E7
:10239000A2D570DB500BED448024045004A2D580FC
:1023A000CEEFFBEEFAEDF9ECF8120410EFF582F443
:1023B00004FC12036712004DC08290233C74091282
:1023C0000456ED33CC33D0F092D525F0A2D5700170
:1023D000C313CC13FD228B218A22892353E6FD12DD
:1023E0003B8CE4FF74662FF8E4F60FBF2BF6AB21AD
:1023F000AA22A92312078D7888120772AB21AA227C
:10240000A9239000031207AD788B120772AB21AAA3
:1024100022A9239000061207AD788E120772AB2115
:10242000AA22A9239000091204AD7867F653A98F58
:1024300043D720759601759708E59620E7FB7596BA
:102440000B75970FE59620E7FB123B14E5C9A2E652
:102450007868500476038002760143E6027596019F
:10246000759701E59620E7FB7F00227879E61392C5
:1024700003123B568F52C37877E69F18E6940050BC
:102480000E7878760108E64402F67553F2805578A6
:1024900073120769AD52E4FF1231DCAF527E00784F
:1024A00075EF26F618EE36F6C37877E69FFF18E646
:1024B0009EFEF608EFF6E4F553EF4E701CE552640D
:1024C000406016759611759748E59620E7FB787879
:1024D000760108E654FEF6800B759611759740E577
:1024E0009620E7FB300315E552FB7A007876E6F597
:1024F0005908E6F55AAD53E4FF121521227552FF33
:102500007871E61846600302258A786AE6541F242B
:10251000FE7077786EE6FE08E6547FFF4E700D7809
:1025200068E6C394044005E4F552805EC3EF94036B
:10253000EE94005055786DE61846704E7868E66463
:10254000067047F552786FE6547FFF123B1F786F95
:10255000E630E70B759611759710E59620E7FB7846
:102560006FE620E710759694E59620E7FB439720E9
:10257000E59620E7FB786FE6247F600A2480700AE6
:10258000788676068004787F7606AF5222123B81E9
:10259000787FE4F6D8FD7581940225D7022A00E4FD
:1025A00093A3F8E493A34003F68001F208DFF480DC
:1025B00029E493A3F85407240CC8C333C4540F442C
:1025C00020C8834004F456800146F6DFE4800B0106
:1025D000020408102040809039EBE47E019360BC37
:1025E000A3FF543F30E509541FFEE493A360010E9E
:1025F000CF54C025E060A840B8E493A3FAE493A3C5
:10260000F8E493A3C8C582C8CAC583CAF0A3C8C5E5
:1026100082C8CAC583CADFE9DEE780BEAE07E4FB35
:10262000123B1F300513A80674107E00088005C3F6
:1026300033CE33CED8F9FF8013AF0674207E00A8C6
:1026400007088005C333CE33CED8F9FFD3ED9FEC16
:102650009E5003430380300603430340300420436D
:102660000320300503430304759611759740E596E2
:1026700020E7FB7596128B97E59630E72580F97574
:102680009614759780E59620E7FB7596158B97E570
:102690009620E7FB20050B759612E4F597E596204A
:1026A000E7FB22751FACE4FFEFC3940874809480AD
:1026B0005016EF25E024E3F582E43407F583741423
:1026C000F0A37480F00F80E074FFFBFA7D0F7F07AA
:1026D0001237D07FE87E037D007C00122F197BFF2C
:1026E0007F041237CC7FE87E037D007C00122F1917
:1026F0007B027F051237CC7FE87E037D007C0012D1
:102700002F197B017A007D0F7F081237D07FE87E7A
:10271000037D007C00122F199007E3E0FAA3E0FB91
:102720007D0F7F020237D08F5B8B5C8A5D895EE50F
:102730005B600C24FE600880001200417FFC22E5F3
:102740005B600A7868E6640660037FF722E55B75E4
:10275000F007A42473F9AF01EF2405F8E6FE640145
:102760006009EE7FFEB405027FFB22E5E6A2E1925E
:102770000553E6FDAB5CAA5DA95EA807120772EFE0
:102780002403F8A65F08A660EF2405F87603A204E8
:10279000E4335401FEEF2406F8E654FE4EF654F7F7
:1027A000F630050343E6027F00229001DEE0FD9053
:1027B00001DDE0F521EDF5229001E0E0FD9001DF83
:1027C000E0FEEDF4F524EEF4F523E52264804521E6
:1027D0007027E524B4FB22E523B4FF1DE4F58075E2
:1027E000F1FFF5A4F59075F2FFF5A5F5A075F3FFDF
:1027F000F5A6F5B075F4FFF5A7AF22AE21121F5E66
:10280000AD07AC06ED5224EC5223AD24AC23AF222D
:10281000AE2112180BAC069001DFECF0A3EFF090A4
:1028200001DBE4F0A37404F07F0022752900752A0F
:1028300000752B211235EDAD07AC06E41203628F53
:10284000288E278D268C25E4FBFAF9784212013E6A
:102850008F288E278D268C25E4FBFA798078471205
:1028600002478F288E278D268C258F248E238D223C
:102870008C21E4FFFEAB29AA2AA92B8F828E83121A
:1028800004ADFD74DD2FF58274013EF583EDF00F8C
:10289000BF00010EEF64044E70DB9001DBE4F0A397
:1028A0007404F07F00229001DDE0FCA3E0FD9001C4
:1028B000E0E0FB9001DFE0F521EBF522EC54FE6453
:1028C000AC7029ED540725E024E3F582E43407F5E4
:1028D00083E09001E1F0ED540725E024E3F582E484
:1028E0003407F583A3E09001E2F08021AF0479E1A1
:1028F0007535017536017537E1AB22AA211220B179
:10290000EF600AE49001DBF0A3F07F01229001DB8D
:10291000E521F0A3E522F07F00228F318D328A334A
:102920008B34122C10EF6006122DA17F0122E531AD
:1029300054FEFF12326DEF6006122DA17F0222AF0E
:102940003212326DEF6006122DA17F0322E4F538BA
:10295000F539C3E5399534E53895335026AB35AABA
:1029600036A9378539828538831204ADFF12326D5E
:10297000EF6006122DA17F04220539E53970D305D9
:102980003880CF122DA1EF7F0060027F05228E31AB
:102990008F32E4F534F535C2A47F01FEFDFC122F21
:1029A00019E4F533E53130E704D2A78002C2A77FEE
:1029B000017E007D007C00122F19E53225E0F53202
:1029C000E53133F531D2A47F027E007D007C001218
:1029D0002F19E53525E0F535E53433F53430A50517
:1029E0004335018000C2A47F027E007D007C00127E
:1029F0002F190533E533C3941040A9AE34AF352207
:102A0000123755122E62120B4F1232F3123A76120F
:102A1000397A1236D9123B6B1211D21226A3123315
:102A2000B11236AC7B007A007908120CB27BFF7AC7
:102A3000217956123A86D2AFE4900801F09008014D
:102A4000E0600B1232F31226A3E4900801F0E51CBB
:102A5000451B451A6010AA1BA91C120803751A0011
:102A6000751B00751C001238141232AF80CF900114
:102A7000DDE0FCA3E0FD9001E0E0FB9001DFE0F58C
:102A800021EBF522EC54FE64AC701F9001E2E0FBF8
:102A90009001E1E0FEEBFFED540725E024E3F58231
:102AA000E43407F583EEF0A3EFF0AF0479E1753578
:102AB000017536017537E1AB22AA2112291AEF60A0
:102AC0000AE49001DBF0A3F07F01229001DBE52115
:102AD000F0A3E522F07F00228F618D628B638A6410
:102AE0008965E59620E7FBE5614420F596E56314EA
:102AF00060132403601A146020147026AD65AF6261
:102B0000123A2A801DAC64AD65AF621239AB8012F7
:102B1000AD65AF62123A3E8009AC64AD65AF62123A
:102B2000399430061CE561D394004015AF61123B27
:102B30001F759691E59620E7FB439701E59620E700
:102B4000FB229001DEE0FD9001DDE0F521EDF522B4
:102B50009001E0E0FD9001DFE0F523EDF524E522B2
:102B6000648045217011E524640445237009D2B3C3
:102B7000D2B290080104F0AF22AE21121F5EAD0761
:102B8000AC06ED4224EC4223AD24AC23AF22AE21AF
:102B900012180BAC069001DFECF0A3EFF09001DB14
:102BA000E4F0A37404F07F00227536F875370085D1
:102BB0002E38852F39C3E52B952FF53BE52A952E29
:102BC000F53AFAAB3BAD39AC38AF37AE368E3C8F09
:102BD0003D8C3E8D3F8A408B41E4F542F543C3E591
:102BE000439541E54295405026E53F2543FFE53EAC
:102BF0003542FE123A64AD07E53D2543FFE53C351D
:102C000042FE1237030543E54370D3054280CF22CD
:102C100030B31220B225C2B37F027E007D007C005B
:102C2000122F19800730B204D2B3800FD2B27F02C4
:102C30007E007D007C00122F19D2B37F027E007DC2
:102C4000007C00122F1930B32B30B2287F0A7E008F
:102C50007D007C00122F19C2B27F0A7E007D007CAD
:102C600000122F19C2B37F097E007D007C00122F55
:102C7000197F00227F01228F40E5406004D2B2809C
:102C800002C2B27F027E007D007C00122F19A2B228
:102C9000E433654060037F0122D2B37541087F02AF
:102CA0007E007D007C00122F1920B3157F0C7E0062
:102CB0007D007C00122F19AF411541EF70EB7F01B1
:102CC000227F097E007D007C00122F19C2B37F098C
:102CD0007E007D007C00122F197F00228B408A41EC
:102CE0008942D2B27F027E007D007C00122F19D271
:102CF000B37543087F027E007D007C00122F1920EF
:102D0000B3157F0C7E007D007C00122F19AF431598
:102D100043EF70EB7F0122A2B2E433AB40AA41A99A
:102D2000421204DA7F097E007D007C00122F19C256
:102D3000B37F097E007D007C00122F197F00227571
:102D400052FF786CE6FE08E6FFC39480EE940050D4
:102D50004D7871E618467046786AE6541F703F78E1
:102D60006FE6184670387868E6B4030BEF4E6019CA
:102D70007F0412361D80127868E6B4040F786DE681
:102D8000184670057F0312361DE4F552E552700EA9
:102D9000F596786DE64480F597E59620E7FBAF520F
:102DA0002220B30720B214D2B3801F30B21CC2B3AA
:102DB0007F027E007D007C00122F19C2B27F027E4E
:102DC000007D007C00122F19D2B37F027E007D00AF
:102DD0007C00122F1930B32720B2247F0A7E007D99
:102DE000007C00122F19D2B27F0A7E007D007C0089
:102DF000122F1930B30630B2037F00227F01227FE9
:102E000001228F56E4F558E5566005C39403400847
:102E10001200417558FC8041E5E6A2E1920453E6B8
:102E2000FDE55675F007A42473F98957E557240585
:102E3000F8E664016023E55624FE600A04700C7F06
:102E40000112348E80057F011234C2E5572405F843
:102E50007601E5572406F8E4F630040343E602AFB2
:102E6000582243B61043AF2043B283E4F5B943B9C7
:102E700080F521F522F521F522C3E52294F4E52120
:102E80009401500E0522E52270020521AE21AF22E9
:102E900080E743B940E4F521F522F521F522C3E5A9
:102EA0002294F4E5219401500E0522E522700205DA
:102EB00021AE21AF2280E7E5B930E5FB75A90322F9
:102EC00075526AA9527A007B007D08E4FF1231DC5A
:102ED000E5522402F8E6FC08E6FAECFFEAFEE552C9
:102EE0002402F8A60608A607E5522404F8E6FC0822
:102EF000E6FAECFFEAFEE5522404F8A60608A60767
:102F0000E5522406F8E6FC08E6FAECFFEAFEE55294
:102F10002406F8A60608A607228F478E468D458C04
:102F200044E4F54BF54AF549F548F54CF54BF54ABF
:102F3000F549F548AF47AE46AD45AC44AB4BAA4A60
:102F4000A949A848C31206E35025E4F54C054CE511
:102F50004CB408F9AF4BAE4AAD49AC48EF2401F58B
:102F60004BE43EF54AE43DF549E43CF54880C52292
:102F7000E4FF786BE61207DD2F97002F9C012FA14D
:102F8000032FA6052FAB062FB0082FB5092FBA0ABD
:102F90002FBF0B00002FC4121C9D802A1220098015
:102FA000251224FD8020122D3F801B12162480162E
:102FB0001232238011121BE6800C12337380071229
:102FC000358C80027FFF228F558D56E556B405144F
:102FD00090003E1206F4EF4480FFEC90003E120792
:102FE00020123AF0E556B4061190003E1206F4EFB6
:102FF0004440FFEC90003E120720E556C394065073
:1030000003123AF0900042E030E00F90003E1206CA
:10301000F4EC4D4E4F6003123A00229001DDE07E49
:10302000007802C333CE33CED8F92415F974063EA6
:10303000752101F5228923E4FFFEAB21AA22A923F1
:103040008F828E831204ADFD74DD2FF58274013EF4
:10305000F583EDF00FBF00010EEF64044E70DB90BE
:1030600001DBE4F0A37404F07F00229001DDE07E38
:10307000007802C333CE33CED8F92415F974063E56
:10308000752101F5228923E4FFFE74DE2FF5827499
:10309000013EF583E0AB21AA22A9238F828E831201
:1030A00004EC0FBF00010EEF64044E70DD9007C901
:1030B0007401F07F00228F3A8B3B8A3C893D753E3C
:1030C00008E41204DAAB3BAA3CA93D120494FF25A4
:1030D000E01204DA7B007A00793F122CDCEF600307
:1030E0007F0122AB3BAA3CA93D120494453F120448
:1030F000DAD53ED1AF3A122C77EF7F0060027F0124
:10310000228B238A2489258C268D27E4F52AF52B0A
:10311000C3E52B9529E52A95285029E527252BFF7E
:10312000E526352AFE123A64AB230525E525AA24B7
:103130007002052414F9EF1204DA052BE52B70D088
:10314000052A80CCAB23AA24A92522123AA2400644
:10315000E5C9A2E6403E53D7BC53A98F43A910E569
:10316000C97F0020E7027F01BF010DD20043C910D3
:10317000E4FF0FBF03FC8002C20043B220123AA258
:1031800040F8E5C9A2E650F230000353C9EF12340B
:103190002443D740228E2A8F2B8B2C8A2D892E8573
:1031A0002A31852B32E52B2530FFE52A352FFEC34A
:1031B000E5329FE5319E5023AB2C052EE52EAA2D3E
:1031C0007002052D14F9120494FDAF32AE3112379E
:1031D000030532E53270CE053180CA228F548D55F9
:1031E0008B568A578958E555D394004035E596208B
:1031F000E7FBE55444E0F596E556146011240360BE
:103200001824FE701DAD58AB54AF5502395DAC5754
:10321000AD58AB54AF550238C2AD58AB54AF551290
:103220003903227FFF786FE61846703D18E618468E
:1032300070377871E664011846702E786AE6FE30C1
:10324000E727541F70237868E6B404087BFF7A3CB4
:1032500079BF800C7868E6B4060F7B007A00796647
:103260007D017C0012364DE4FF2254FEFF8F3A753B
:103270003B08E53A30E70B7F01122C77EF600E7FB9
:103280000122E4FF122C77EF60037F0122E53A254B
:10329000E0F53AD53BDC7B007A00793C122CDCEF80
:1032A00064016005E53CB401037F02227F0022AF88
:1032B000807E00121F5EEF7805CEC313CE13D8F9BF
:1032C0007E005401FF70079007C7F0A3F022EF645F
:1032D000014E70169007C7E07002A3E0700C7B01EE
:1032E000FA7D0F7F081237D080009007C7E4F0A363
:1032F00004F02275802675F1EF75A42E75D4FF7544
:1033000090D875F2FFE4F5A575D5FF75A0FD75F3AE
:10331000FF75A6D675D6FF75B09D75F4FF75A7919C
:1033200075DFFF75C70775F5FF75AE0375E10275AB
:10333000E240F5E3227521017522057523DDE4FFE6
:10334000FE74DD2FF58274013EF583E0AB21AA22E5
:10335000A9238F828E831204EC0FBF00010EBE01E1
:10336000E0BFE6DD9007C97401F0E49001DBF0A353
:10337000F0FF22786EE6FE08E67DFFC39401EE942E
:1033800000502B7871E6640118467022786DE618BB
:1033900046701B786AE6B481157868E6B4060F7B40
:1033A000FF7A3C79BF7D017C0012364DE4FDAF050C
:1033B00022123B6BE4FFFE121A6E7F017E00121A8E
:1033C0006E9007D312072C000000009007D7120759
:1033D0002C000000009007DB12072C00000000907A
:1033E00007DF12072C000000007F00229001DEE0C2
:1033F000FD9001DDE0FEEDFBAA069001E0E0FD900E
:1034000001DFE0FEEDAC06AF03AE0212180BAC0616
:103410009001DFECF0A3EFF09001DBE4F0A3740483
:10342000F07F002243B283E5B920E529E4F5B943F2
:10343000B980FFFE0FBF00010EBE01F8BFF4F543D7
:10344000B940E4FEFF0FBF00010EBE01F8BFF4F566
:10345000E5B930E5FB53A98F2278787601787F763D
:10346000067886760675960F75978FE59620E7FBAA
:10347000759601759701E59620E7FB75960B759794
:103480000FE59620E7FB7F0312361D023838123B0A
:103490001F759611759708E59620E7FB759691E5DF
:1034A0009620E7FBE59720E3F3759611759708E5FD
:1034B0009620E7FB759691E59620E7FBE59720E3DC
:1034C000F322123B1F759614759710E59620E7FBC3
:1034D000759694E59620E7FBE59720E4F37596143E
:1034E000759710E59620E7FB759694E59620E7FB27
:1034F000E59720E4F322E4FFFE743F2FF582740683
:103500003EF583E0FD74DD2FF58274013EF583ED19
:10351000F00FBF00010EEF64044E70DD9001DBE49C
:10352000F0A37404F07F00229007F3120784900741
:10353000F812077B90005E120784E4F5F01205BBD9
:10354000900061ECF0A3EDF09007F312077B8C5F25
:103550008D60D2047F02122727229007F31207847E
:103560009007F812077B90005B120784E4F5F012D5
:1035700005BB900063ECF0A3EDF09007F312077B1E
:103580008C5F8D60D2047F01121EB0227FFF786FA6
:10359000E6FE786DE6FDEEC3940150207868E6B44F
:1035A000061A7871E618467013ED7010786AE654C2
:1035B0001FFEBE0107C20312377EE4FF22E4FEC2F3
:1035C000AF7A00792C12387FD2AF7FE87E037D007E
:1035D0007C00122F19C2AF7B007A00792C7D027F0C
:1035E00013123922D2AFE52CFEE52DFF22E4FEC2F4
:1035F000AF7A00792C12387FD2AF7FE87E037D004E
:103600007C00122F19C2AF7B007A00792C7D027FDB
:1036100007123922D2AFE52CFEE52DFF228F537819
:1036200068E6F554C394054009E553940550031228
:1036300038A1E553B405047869A6547868A653E523
:103640005465536007AD53AF54122FC7227878E604
:103650006401702878731207727876A60408A605AC
:10366000087602E408F6ED543F70117871E66D704B
:103670000318E66C60067879E64410F622E4FFFE53
:1036800074DD2FF58274013EF583E0FD743F2FF564
:103690008274063EF583EDF00FBF00010EEF640467
:1036A0004E70DD9007C97401F07F0022D2A275210F
:1036B000707B007A0079217D017F1C1238837B00AA
:1036C0007A007921E4FD7F1F1238837FE87E037D35
:1036D000007C00122F197F0022C2B3C2B27F027E8B
:1036E000007D007C00122F19D2B2D2B37F027E007F
:1036F0007D007C00122F1930B30630B2037F002208
:103700007F0122A2AF9200C2AF75FFA075EF028FBA
:10371000828E8375B7A575B7F1438F0175FFA075CC
:10372000EF02EDF0538FFEA20092AF22A2AF920003
:10373000C2AF75FF8075EF028F828E8375B7A57556
:10374000B7F1438F0375FF8075EF02E4F0538FFCF0
:10375000A20092AF2275FF80E4F521F522F521F554
:1037600022C3E52294F4E5219401500E0522E522BE
:1037700070020521AE21AF2280E775EF02223003EF
:1037800008787F760178867601D204D205C2067D5C
:10379000407C007F0112261CC204D205C2067D4077
:1037A0007C007F0102261C9001DEE0FD9001DDE03F
:1037B000FEEDFF121F5EAC069001DFECF0A3EFF010
:1037C0009001DBE4F0A37404F07F00227A007D0F07
:1037D000ED540FFEEFC454F04EFD8A218B22753557
:1037E000007536007537217B027A00AF1F02291A57
:1037F0008E238F248B258A268927AD29AC28120E8B
:103800000DAB25AA26A92785282F852930AF24AE00
:10381000230231959007C9E0B4011CC2AF7A057943
:10382000DD7B017528017529E67F007EF61237F0F1
:10383000D2AFE49007C9F02290003E12072C00009E
:103840000001123AF0900042E030E00F90003E128A
:1038500006F4EC4D4E4F6003123A0022AD07ED44E2
:1038600080F596E59620E7FBAF97EF7F00FEED141D
:103870004480F596E59620E7FBAD97ED420722FBE5
:10388000FD7F1F8B2E8A2F8930AE05AD07EEFB7AA8
:1038900000852E35852F3689377F2012291A7F0023
:1038A00022E5E6A2E1920353E6FD755501AF5512FC
:1038B0002E020555E555C3940340F230030343E659
:1038C00002228D828C831FEF600BE59620E7FBE5DB
:1038D00097F0A380F1E59620E7FBEB4420F596E511
:1038E00097F0229001DD74F0F0E4A3F0A37416F0D9
:1038F000A37401F0A304F09001DBE4F0A37405F0DD
:103900007F0022A8051FEF600BE59620E7FBE597F7
:10391000F20880F1E59620E7FBEB4420F596E59769
:10392000F2228B2E8A2F8930AE05AD07EEFB7A008E
:10393000852E35852F3689377F201220B17F0022D2
:1039400090003E1206F49007F312072090003E12FA
:10395000072C000000009007F31206F422A8051FB0
:10396000EF600AE59620E7FBA6970880F2E596202F
:10397000E7FBEB4420F596A69722E4F5E890063E97
:10398000E0700575D107800375D10E75BC7853BC06
:10399000F8D2EF228D828C83AE071FEE600CE59685
:1039A00020E7FBE493F597A380EE228D828C83AE13
:1039B000071FEE600BE59620E7FBE0F597A380EF8D
:1039C000229007CAE054019001DDF09001DBE4F0A1
:1039D000A304F07F00229001DDE054019007CAF0BB
:1039E0009001DBE4F0A304F07F00221208014530CF
:1039F00009FF3C8FFF3C9FFF3CB432800100000078
:103A0000900057E0700E04F0A312077B120803E445
:103A1000900057F022E4FF123B1F787876057596E8
:103A200011759760E59620E7FB22A805AE071FEE0B
:103A3000600BE59620E7FBE6F5970880EF22A805E6
:103A4000AE071FEE600BE59620E7FBE2F5970880D6
:103A5000EF22751AFF751B3B751C85E49001DBF0A6
:103A6000A3F0FF22A2AF9200C2AF8F828E83E493B5
:103A7000FFA20092AF229007CA7401F0751A007578
:103A80001B00751C0022900058120784900042E031
:103A90004401F0227868E6C3940240057F0512369F
:103AA0001D22759681E59620E7FBE597A2E1227538
:103AB0009691E59620E7FBE597A2E422759691E5BD
:103AC0009620E7FBE597A2E222759691E59620E71E
:103AD000FBE597A2E122759691E59620E7FBE59735
:103AE000A2E522759694E59620E7FBE597A2E622EB
:103AF000E4900061F0A3F0A3F0A3F022759691E5A5
:103B00009620E7FBE5971322759694E59620E7FB50
:103B1000E59713227878760143D78043D740227502
:103B2000960E8F97E59620E7FB22759686E5962000
:103B3000E7FBAF9722759682E59620E7FBAF9722C9
:103B4000759684E59620E7FBAF972275968EE596ED
:103B500020E7FBAF9722759696E59620E7FBAF9797
:103B600022900019E0C330E601D322D2A4D2A6D21B
:103B7000A77F00227869E6FF02361D7F1712385CA6
:103B80002253D9BF2243EF102202314B22120100EF
:103B90000200000040C410000000010102030109FE
:103BA00002200001010080320904000002FF000031
:103BB00000070581024000000705010240000004E3
:103BC00003090412034D0053004600540031003035
:103BD0000030000100280000000001040001000086
:103BE0000000000000000157494E555342000000FC
:103BF0000000000000000000000000000092000033
:103C00000000010500010088000000070000002AF4
:103C10000044006500760069006300650049006E9D
:103C20000074006500720066006100630065004773
:103C30000055004900440073000000500000007B64
:103C400000330043003500450031003400360032B7
:103C5000002D0035003600390035002D0034006598
:103C600000310038002D0038003700360042002DAA
:103C70000046003300460033004400300038004165
:103C80000041004600310038007D000000000001C6
:103C90001A0353696C69636F6E204C616273000193
:103CA0002403524F53415F45564B5F574954485F79
:103CB00043445200010A03303030390080020500CD
:013CC0000003
:00000001FF
